{
  "contractName": "SafeNumbers",
  "abi": [
    {
      "inputs": [],
      "stateMutability": "nonpayable",
      "type": "constructor"
    },
    {
      "inputs": [
        {
          "internalType": "address",
          "name": "sender",
          "type": "address"
        },
        {
          "internalType": "uint256",
          "name": "tokenId",
          "type": "uint256"
        },
        {
          "internalType": "address",
          "name": "owner",
          "type": "address"
        }
      ],
      "name": "ERC721IncorrectOwner",
      "type": "error"
    },
    {
      "inputs": [
        {
          "internalType": "address",
          "name": "operator",
          "type": "address"
        },
        {
          "internalType": "uint256",
          "name": "tokenId",
          "type": "uint256"
        }
      ],
      "name": "ERC721InsufficientApproval",
      "type": "error"
    },
    {
      "inputs": [
        {
          "internalType": "address",
          "name": "approver",
          "type": "address"
        }
      ],
      "name": "ERC721InvalidApprover",
      "type": "error"
    },
    {
      "inputs": [
        {
          "internalType": "address",
          "name": "operator",
          "type": "address"
        }
      ],
      "name": "ERC721InvalidOperator",
      "type": "error"
    },
    {
      "inputs": [
        {
          "internalType": "address",
          "name": "owner",
          "type": "address"
        }
      ],
      "name": "ERC721InvalidOwner",
      "type": "error"
    },
    {
      "inputs": [
        {
          "internalType": "address",
          "name": "receiver",
          "type": "address"
        }
      ],
      "name": "ERC721InvalidReceiver",
      "type": "error"
    },
    {
      "inputs": [
        {
          "internalType": "address",
          "name": "sender",
          "type": "address"
        }
      ],
      "name": "ERC721InvalidSender",
      "type": "error"
    },
    {
      "inputs": [
        {
          "internalType": "uint256",
          "name": "tokenId",
          "type": "uint256"
        }
      ],
      "name": "ERC721NonexistentToken",
      "type": "error"
    },
    {
      "anonymous": false,
      "inputs": [
        {
          "indexed": true,
          "internalType": "address",
          "name": "owner",
          "type": "address"
        },
        {
          "indexed": true,
          "internalType": "address",
          "name": "approved",
          "type": "address"
        },
        {
          "indexed": true,
          "internalType": "uint256",
          "name": "tokenId",
          "type": "uint256"
        }
      ],
      "name": "Approval",
      "type": "event"
    },
    {
      "anonymous": false,
      "inputs": [
        {
          "indexed": true,
          "internalType": "address",
          "name": "owner",
          "type": "address"
        },
        {
          "indexed": true,
          "internalType": "address",
          "name": "operator",
          "type": "address"
        },
        {
          "indexed": false,
          "internalType": "bool",
          "name": "approved",
          "type": "bool"
        }
      ],
      "name": "ApprovalForAll",
      "type": "event"
    },
    {
      "anonymous": false,
      "inputs": [
        {
          "indexed": false,
          "internalType": "uint256",
          "name": "_fromTokenId",
          "type": "uint256"
        },
        {
          "indexed": false,
          "internalType": "uint256",
          "name": "_toTokenId",
          "type": "uint256"
        }
      ],
      "name": "BatchMetadataUpdate",
      "type": "event"
    },
    {
      "anonymous": false,
      "inputs": [
        {
          "indexed": false,
          "internalType": "uint256",
          "name": "_tokenId",
          "type": "uint256"
        }
      ],
      "name": "MetadataUpdate",
      "type": "event"
    },
    {
      "anonymous": false,
      "inputs": [
        {
          "indexed": true,
          "internalType": "address",
          "name": "from",
          "type": "address"
        },
        {
          "indexed": true,
          "internalType": "address",
          "name": "to",
          "type": "address"
        },
        {
          "indexed": true,
          "internalType": "uint256",
          "name": "tokenId",
          "type": "uint256"
        }
      ],
      "name": "Transfer",
      "type": "event"
    },
    {
      "inputs": [],
      "name": "admin",
      "outputs": [
        {
          "internalType": "address",
          "name": "",
          "type": "address"
        }
      ],
      "stateMutability": "view",
      "type": "function"
    },
    {
      "inputs": [
        {
          "internalType": "address",
          "name": "to",
          "type": "address"
        },
        {
          "internalType": "uint256",
          "name": "tokenId",
          "type": "uint256"
        }
      ],
      "name": "approve",
      "outputs": [],
      "stateMutability": "nonpayable",
      "type": "function"
    },
    {
      "inputs": [
        {
          "internalType": "address",
          "name": "owner",
          "type": "address"
        }
      ],
      "name": "balanceOf",
      "outputs": [
        {
          "internalType": "uint256",
          "name": "",
          "type": "uint256"
        }
      ],
      "stateMutability": "view",
      "type": "function"
    },
    {
      "inputs": [
        {
          "internalType": "uint256",
          "name": "tokenId",
          "type": "uint256"
        }
      ],
      "name": "getApproved",
      "outputs": [
        {
          "internalType": "address",
          "name": "",
          "type": "address"
        }
      ],
      "stateMutability": "view",
      "type": "function"
    },
    {
      "inputs": [
        {
          "internalType": "address",
          "name": "owner",
          "type": "address"
        },
        {
          "internalType": "address",
          "name": "operator",
          "type": "address"
        }
      ],
      "name": "isApprovedForAll",
      "outputs": [
        {
          "internalType": "bool",
          "name": "",
          "type": "bool"
        }
      ],
      "stateMutability": "view",
      "type": "function"
    },
    {
      "inputs": [],
      "name": "name",
      "outputs": [
        {
          "internalType": "string",
          "name": "",
          "type": "string"
        }
      ],
      "stateMutability": "view",
      "type": "function"
    },
    {
      "inputs": [
        {
          "internalType": "uint256",
          "name": "tokenId",
          "type": "uint256"
        }
      ],
      "name": "ownerOf",
      "outputs": [
        {
          "internalType": "address",
          "name": "",
          "type": "address"
        }
      ],
      "stateMutability": "view",
      "type": "function"
    },
    {
      "inputs": [
        {
          "internalType": "address",
          "name": "from",
          "type": "address"
        },
        {
          "internalType": "address",
          "name": "to",
          "type": "address"
        },
        {
          "internalType": "uint256",
          "name": "tokenId",
          "type": "uint256"
        }
      ],
      "name": "safeTransferFrom",
      "outputs": [],
      "stateMutability": "nonpayable",
      "type": "function"
    },
    {
      "inputs": [
        {
          "internalType": "address",
          "name": "from",
          "type": "address"
        },
        {
          "internalType": "address",
          "name": "to",
          "type": "address"
        },
        {
          "internalType": "uint256",
          "name": "tokenId",
          "type": "uint256"
        },
        {
          "internalType": "bytes",
          "name": "data",
          "type": "bytes"
        }
      ],
      "name": "safeTransferFrom",
      "outputs": [],
      "stateMutability": "nonpayable",
      "type": "function"
    },
    {
      "inputs": [
        {
          "internalType": "address",
          "name": "operator",
          "type": "address"
        },
        {
          "internalType": "bool",
          "name": "approved",
          "type": "bool"
        }
      ],
      "name": "setApprovalForAll",
      "outputs": [],
      "stateMutability": "nonpayable",
      "type": "function"
    },
    {
      "inputs": [
        {
          "internalType": "bytes4",
          "name": "interfaceId",
          "type": "bytes4"
        }
      ],
      "name": "supportsInterface",
      "outputs": [
        {
          "internalType": "bool",
          "name": "",
          "type": "bool"
        }
      ],
      "stateMutability": "view",
      "type": "function"
    },
    {
      "inputs": [],
      "name": "symbol",
      "outputs": [
        {
          "internalType": "string",
          "name": "",
          "type": "string"
        }
      ],
      "stateMutability": "view",
      "type": "function"
    },
    {
      "inputs": [
        {
          "internalType": "uint256",
          "name": "tokenId",
          "type": "uint256"
        }
      ],
      "name": "tokenURI",
      "outputs": [
        {
          "internalType": "string",
          "name": "",
          "type": "string"
        }
      ],
      "stateMutability": "view",
      "type": "function"
    },
    {
      "inputs": [
        {
          "internalType": "address",
          "name": "from",
          "type": "address"
        },
        {
          "internalType": "address",
          "name": "to",
          "type": "address"
        },
        {
          "internalType": "uint256",
          "name": "tokenId",
          "type": "uint256"
        }
      ],
      "name": "transferFrom",
      "outputs": [],
      "stateMutability": "nonpayable",
      "type": "function"
    },
    {
      "inputs": [
        {
          "internalType": "string",
          "name": "tokenURI",
          "type": "string"
        }
      ],
      "name": "mint",
      "outputs": [
        {
          "internalType": "uint256",
          "name": "",
          "type": "uint256"
        }
      ],
      "stateMutability": "nonpayable",
      "type": "function"
    }
  ],
  "bytecode": "0x608060405234801562000010575f80fd5b506040518060400160405280600b81526020017f536166654e756d626572730000000000000000000000000000000000000000008152506040518060400160405280600381526020017f53464e0000000000000000000000000000000000000000000000000000000000815250815f90816200008d91906200034c565b5080600190816200009f91906200034c565b5050503360085f6101000a81548173ffffffffffffffffffffffffffffffffffffffff021916908373ffffffffffffffffffffffffffffffffffffffff16021790555062000430565b5f81519050919050565b7f4e487b71000000000000000000000000000000000000000000000000000000005f52604160045260245ffd5b7f4e487b71000000000000000000000000000000000000000000000000000000005f52602260045260245ffd5b5f60028204905060018216806200016457607f821691505b6020821081036200017a57620001796200011f565b5b50919050565b5f819050815f5260205f209050919050565b5f6020601f8301049050919050565b5f82821b905092915050565b5f60088302620001de7fffffffffffffffffffffffffffffffffffffffffffffffffffffffffffffffff82620001a1565b620001ea8683620001a1565b95508019841693508086168417925050509392505050565b5f819050919050565b5f819050919050565b5f620002346200022e620002288462000202565b6200020b565b62000202565b9050919050565b5f819050919050565b6200024f8362000214565b620002676200025e826200023b565b848454620001ad565b825550505050565b5f90565b6200027d6200026f565b6200028a81848462000244565b505050565b5b81811015620002b157620002a55f8262000273565b60018101905062000290565b5050565b601f8211156200030057620002ca8162000180565b620002d58462000192565b81016020851015620002e5578190505b620002fd620002f48562000192565b8301826200028f565b50505b505050565b5f82821c905092915050565b5f620003225f198460080262000305565b1980831691505092915050565b5f6200033c838362000311565b9150826002028217905092915050565b6200035782620000e8565b67ffffffffffffffff811115620003735762000372620000f2565b5b6200037f82546200014c565b6200038c828285620002b5565b5f60209050601f831160018114620003c2575f8415620003ad578287015190505b620003b985826200032f565b86555062000428565b601f198416620003d28662000180565b5f5b82811015620003fb57848901518255600182019150602085019450602081019050620003d4565b868310156200041b578489015162000417601f89168262000311565b8355505b6001600288020188555050505b505050505050565b612422806200043e5f395ff3fe608060405234801561000f575f80fd5b50600436106100f3575f3560e01c806370a0823111610095578063c87b56dd11610064578063c87b56dd1461027f578063d85d3d27146102af578063e985e9c5146102df578063f851a4401461030f576100f3565b806370a08231146101f957806395d89b4114610229578063a22cb46514610247578063b88d4fde14610263576100f3565b8063095ea7b3116100d1578063095ea7b31461017557806323b872dd1461019157806342842e0e146101ad5780636352211e146101c9576100f3565b806301ffc9a7146100f757806306fdde0314610127578063081812fc14610145575b5f80fd5b610111600480360381019061010c9190611886565b61032d565b60405161011e91906118cb565b60405180910390f35b61012f61038d565b60405161013c919061196e565b60405180910390f35b61015f600480360381019061015a91906119c1565b61041c565b60405161016c9190611a2b565b60405180910390f35b61018f600480360381019061018a9190611a6e565b610437565b005b6101ab60048036038101906101a69190611aac565b61044d565b005b6101c760048036038101906101c29190611aac565b61054c565b005b6101e360048036038101906101de91906119c1565b61056b565b6040516101f09190611a2b565b60405180910390f35b610213600480360381019061020e9190611afc565b61057c565b6040516102209190611b36565b60405180910390f35b610231610632565b60405161023e919061196e565b60405180910390f35b610261600480360381019061025c9190611b79565b6106c2565b005b61027d60048036038101906102789190611ce3565b6106d8565b005b610299600480360381019061029491906119c1565b6106f5565b6040516102a6919061196e565b60405180910390f35b6102c960048036038101906102c49190611e01565b610800565b6040516102d69190611b36565b60405180910390f35b6102f960048036038101906102f49190611e48565b6108c6565b60405161030691906118cb565b60405180910390f35b610317610954565b6040516103249190611a2b565b60405180910390f35b5f634906490660e01b7bffffffffffffffffffffffffffffffffffffffffffffffffffffffff1916827bffffffffffffffffffffffffffffffffffffffffffffffffffffffff19161480610386575061038582610979565b5b9050919050565b60605f805461039b90611eb3565b80601f01602080910402602001604051908101604052809291908181526020018280546103c790611eb3565b80156104125780601f106103e957610100808354040283529160200191610412565b820191905f5260205f20905b8154815290600101906020018083116103f557829003601f168201915b5050505050905090565b5f61042682610a5a565b5061043082610ae0565b9050919050565b6104498282610444610b19565b610b20565b5050565b5f73ffffffffffffffffffffffffffffffffffffffff168273ffffffffffffffffffffffffffffffffffffffff16036104bd575f6040517f64a0ae920000000000000000000000000000000000000000000000000000000081526004016104b49190611a2b565b60405180910390fd5b5f6104d083836104cb610b19565b610b32565b90508373ffffffffffffffffffffffffffffffffffffffff168173ffffffffffffffffffffffffffffffffffffffff1614610546578382826040517f64283d7b00000000000000000000000000000000000000000000000000000000815260040161053d93929190611ee3565b60405180910390fd5b50505050565b61056683838360405180602001604052805f8152506106d8565b505050565b5f61057582610a5a565b9050919050565b5f8073ffffffffffffffffffffffffffffffffffffffff168273ffffffffffffffffffffffffffffffffffffffff16036105ed575f6040517f89c62b640000000000000000000000000000000000000000000000000000000081526004016105e49190611a2b565b60405180910390fd5b60035f8373ffffffffffffffffffffffffffffffffffffffff1673ffffffffffffffffffffffffffffffffffffffff1681526020019081526020015f20549050919050565b60606001805461064190611eb3565b80601f016020809104026020016040519081016040528092919081815260200182805461066d90611eb3565b80156106b85780601f1061068f576101008083540402835291602001916106b8565b820191905f5260205f20905b81548152906001019060200180831161069b57829003601f168201915b5050505050905090565b6106d46106cd610b19565b8383610d3d565b5050565b6106e384848461044d565b6106ef84848484610ea6565b50505050565b606061070082610a5a565b505f60065f8481526020019081526020015f20805461071e90611eb3565b80601f016020809104026020016040519081016040528092919081815260200182805461074a90611eb3565b80156107955780601f1061076c57610100808354040283529160200191610795565b820191905f5260205f20905b81548152906001019060200180831161077857829003601f168201915b505050505090505f6107a5611058565b90505f8151036107b95781925050506107fb565b5f825111156107ed5780826040516020016107d5929190611f52565b604051602081830303815290604052925050506107fb565b6107f68461106e565b925050505b919050565b5f60085f9054906101000a900473ffffffffffffffffffffffffffffffffffffffff1673ffffffffffffffffffffffffffffffffffffffff163373ffffffffffffffffffffffffffffffffffffffff1614610890576040517f08c379a000000000000000000000000000000000000000000000000000000000815260040161088790611fbf565b60405180910390fd5b5f60075f8154809291906108a39061200a565b9190505590506108b333826110d4565b6108bd81846111c7565b80915050919050565b5f60055f8473ffffffffffffffffffffffffffffffffffffffff1673ffffffffffffffffffffffffffffffffffffffff1681526020019081526020015f205f8373ffffffffffffffffffffffffffffffffffffffff1673ffffffffffffffffffffffffffffffffffffffff1681526020019081526020015f205f9054906101000a900460ff16905092915050565b60085f9054906101000a900473ffffffffffffffffffffffffffffffffffffffff1681565b5f7f80ac58cd000000000000000000000000000000000000000000000000000000007bffffffffffffffffffffffffffffffffffffffffffffffffffffffff1916827bffffffffffffffffffffffffffffffffffffffffffffffffffffffff19161480610a4357507f5b5e139f000000000000000000000000000000000000000000000000000000007bffffffffffffffffffffffffffffffffffffffffffffffffffffffff1916827bffffffffffffffffffffffffffffffffffffffffffffffffffffffff1916145b80610a535750610a5282611221565b5b9050919050565b5f80610a658361128a565b90505f73ffffffffffffffffffffffffffffffffffffffff168173ffffffffffffffffffffffffffffffffffffffff1603610ad757826040517f7e273289000000000000000000000000000000000000000000000000000000008152600401610ace9190611b36565b60405180910390fd5b80915050919050565b5f60045f8381526020019081526020015f205f9054906101000a900473ffffffffffffffffffffffffffffffffffffffff169050919050565b5f33905090565b610b2d83838360016112c3565b505050565b5f80610b3d8461128a565b90505f73ffffffffffffffffffffffffffffffffffffffff168373ffffffffffffffffffffffffffffffffffffffff1614610b7e57610b7d818486611482565b5b5f73ffffffffffffffffffffffffffffffffffffffff168173ffffffffffffffffffffffffffffffffffffffff1614610c0957610bbd5f855f806112c3565b600160035f8373ffffffffffffffffffffffffffffffffffffffff1673ffffffffffffffffffffffffffffffffffffffff1681526020019081526020015f205f82825403925050819055505b5f73ffffffffffffffffffffffffffffffffffffffff168573ffffffffffffffffffffffffffffffffffffffff1614610c8857600160035f8773ffffffffffffffffffffffffffffffffffffffff1673ffffffffffffffffffffffffffffffffffffffff1681526020019081526020015f205f82825401925050819055505b8460025f8681526020019081526020015f205f6101000a81548173ffffffffffffffffffffffffffffffffffffffff021916908373ffffffffffffffffffffffffffffffffffffffff160217905550838573ffffffffffffffffffffffffffffffffffffffff168273ffffffffffffffffffffffffffffffffffffffff167fddf252ad1be2c89b69c2b068fc378daa952ba7f163c4a11628f55a4df523b3ef60405160405180910390a4809150509392505050565b5f73ffffffffffffffffffffffffffffffffffffffff168273ffffffffffffffffffffffffffffffffffffffff1603610dad57816040517f5b08ba18000000000000000000000000000000000000000000000000000000008152600401610da49190611a2b565b60405180910390fd5b8060055f8573ffffffffffffffffffffffffffffffffffffffff1673ffffffffffffffffffffffffffffffffffffffff1681526020019081526020015f205f8473ffffffffffffffffffffffffffffffffffffffff1673ffffffffffffffffffffffffffffffffffffffff1681526020019081526020015f205f6101000a81548160ff0219169083151502179055508173ffffffffffffffffffffffffffffffffffffffff168373ffffffffffffffffffffffffffffffffffffffff167f17307eab39ab6107e8899845ad3d59bd9653f200f220920489ca2b5937696c3183604051610e9991906118cb565b60405180910390a3505050565b5f8373ffffffffffffffffffffffffffffffffffffffff163b1115611052578273ffffffffffffffffffffffffffffffffffffffff1663150b7a02610ee9610b19565b8685856040518563ffffffff1660e01b8152600401610f0b94939291906120a3565b6020604051808303815f875af1925050508015610f4657506040513d601f19601f82011682018060405250810190610f439190612101565b60015b610fc7573d805f8114610f74576040519150601f19603f3d011682016040523d82523d5f602084013e610f79565b606091505b505f815103610fbf57836040517f64a0ae92000000000000000000000000000000000000000000000000000000008152600401610fb69190611a2b565b60405180910390fd5b805181602001fd5b63150b7a0260e01b7bffffffffffffffffffffffffffffffffffffffffffffffffffffffff1916817bffffffffffffffffffffffffffffffffffffffffffffffffffffffff19161461105057836040517f64a0ae920000000000000000000000000000000000000000000000000000000081526004016110479190611a2b565b60405180910390fd5b505b50505050565b606060405180602001604052805f815250905090565b606061107982610a5a565b505f611083611058565b90505f8151116110a15760405180602001604052805f8152506110cc565b806110ab84611545565b6040516020016110bc929190611f52565b6040516020818303038152906040525b915050919050565b5f73ffffffffffffffffffffffffffffffffffffffff168273ffffffffffffffffffffffffffffffffffffffff1603611144575f6040517f64a0ae9200000000000000000000000000000000000000000000000000000000815260040161113b9190611a2b565b60405180910390fd5b5f61115083835f610b32565b90505f73ffffffffffffffffffffffffffffffffffffffff168173ffffffffffffffffffffffffffffffffffffffff16146111c2575f6040517f73c6ac6e0000000000000000000000000000000000000000000000000000000081526004016111b99190611a2b565b60405180910390fd5b505050565b8060065f8481526020019081526020015f2090816111e591906122c9565b507ff8e1a15aba9398e019f0b49df1a4fde98ee17ae345cb5f6b5e2c27f5033e8ce7826040516112159190611b36565b60405180910390a15050565b5f7f01ffc9a7000000000000000000000000000000000000000000000000000000007bffffffffffffffffffffffffffffffffffffffffffffffffffffffff1916827bffffffffffffffffffffffffffffffffffffffffffffffffffffffff1916149050919050565b5f60025f8381526020019081526020015f205f9054906101000a900473ffffffffffffffffffffffffffffffffffffffff169050919050565b80806112fb57505f73ffffffffffffffffffffffffffffffffffffffff168273ffffffffffffffffffffffffffffffffffffffff1614155b1561142d575f61130a84610a5a565b90505f73ffffffffffffffffffffffffffffffffffffffff168373ffffffffffffffffffffffffffffffffffffffff161415801561137457508273ffffffffffffffffffffffffffffffffffffffff168173ffffffffffffffffffffffffffffffffffffffff1614155b8015611387575061138581846108c6565b155b156113c957826040517fa9fbf51f0000000000000000000000000000000000000000000000000000000081526004016113c09190611a2b565b60405180910390fd5b811561142b57838573ffffffffffffffffffffffffffffffffffffffff168273ffffffffffffffffffffffffffffffffffffffff167f8c5be1e5ebec7d5bd14f71427d1e84f3dd0314c0f7b2291e5b200ac8c7c3b92560405160405180910390a45b505b8360045f8581526020019081526020015f205f6101000a81548173ffffffffffffffffffffffffffffffffffffffff021916908373ffffffffffffffffffffffffffffffffffffffff16021790555050505050565b61148d83838361160f565b611540575f73ffffffffffffffffffffffffffffffffffffffff168373ffffffffffffffffffffffffffffffffffffffff160361150157806040517f7e2732890000000000000000000000000000000000000000000000000000000081526004016114f89190611b36565b60405180910390fd5b81816040517f177e802f000000000000000000000000000000000000000000000000000000008152600401611537929190612398565b60405180910390fd5b505050565b60605f6001611553846116cf565b0190505f8167ffffffffffffffff81111561157157611570611bbf565b5b6040519080825280601f01601f1916602001820160405280156115a35781602001600182028036833780820191505090505b5090505f82602001820190505b600115611604578080600190039150507f3031323334353637383961626364656600000000000000000000000000000000600a86061a8153600a85816115f9576115f86123bf565b5b0494505f85036115b0575b819350505050919050565b5f8073ffffffffffffffffffffffffffffffffffffffff168373ffffffffffffffffffffffffffffffffffffffff16141580156116c657508273ffffffffffffffffffffffffffffffffffffffff168473ffffffffffffffffffffffffffffffffffffffff161480611687575061168684846108c6565b5b806116c557508273ffffffffffffffffffffffffffffffffffffffff166116ad83610ae0565b73ffffffffffffffffffffffffffffffffffffffff16145b5b90509392505050565b5f805f90507a184f03e93ff9f4daa797ed6e38ed64bf6a1f010000000000000000831061172b577a184f03e93ff9f4daa797ed6e38ed64bf6a1f0100000000000000008381611721576117206123bf565b5b0492506040810190505b6d04ee2d6d415b85acef81000000008310611768576d04ee2d6d415b85acef8100000000838161175e5761175d6123bf565b5b0492506020810190505b662386f26fc10000831061179757662386f26fc10000838161178d5761178c6123bf565b5b0492506010810190505b6305f5e10083106117c0576305f5e10083816117b6576117b56123bf565b5b0492506008810190505b61271083106117e55761271083816117db576117da6123bf565b5b0492506004810190505b6064831061180857606483816117fe576117fd6123bf565b5b0492506002810190505b600a8310611817576001810190505b80915050919050565b5f604051905090565b5f80fd5b5f80fd5b5f7fffffffff0000000000000000000000000000000000000000000000000000000082169050919050565b61186581611831565b811461186f575f80fd5b50565b5f813590506118808161185c565b92915050565b5f6020828403121561189b5761189a611829565b5b5f6118a884828501611872565b91505092915050565b5f8115159050919050565b6118c5816118b1565b82525050565b5f6020820190506118de5f8301846118bc565b92915050565b5f81519050919050565b5f82825260208201905092915050565b5f5b8381101561191b578082015181840152602081019050611900565b5f8484015250505050565b5f601f19601f8301169050919050565b5f611940826118e4565b61194a81856118ee565b935061195a8185602086016118fe565b61196381611926565b840191505092915050565b5f6020820190508181035f8301526119868184611936565b905092915050565b5f819050919050565b6119a08161198e565b81146119aa575f80fd5b50565b5f813590506119bb81611997565b92915050565b5f602082840312156119d6576119d5611829565b5b5f6119e3848285016119ad565b91505092915050565b5f73ffffffffffffffffffffffffffffffffffffffff82169050919050565b5f611a15826119ec565b9050919050565b611a2581611a0b565b82525050565b5f602082019050611a3e5f830184611a1c565b92915050565b611a4d81611a0b565b8114611a57575f80fd5b50565b5f81359050611a6881611a44565b92915050565b5f8060408385031215611a8457611a83611829565b5b5f611a9185828601611a5a565b9250506020611aa2858286016119ad565b9150509250929050565b5f805f60608486031215611ac357611ac2611829565b5b5f611ad086828701611a5a565b9350506020611ae186828701611a5a565b9250506040611af2868287016119ad565b9150509250925092565b5f60208284031215611b1157611b10611829565b5b5f611b1e84828501611a5a565b91505092915050565b611b308161198e565b82525050565b5f602082019050611b495f830184611b27565b92915050565b611b58816118b1565b8114611b62575f80fd5b50565b5f81359050611b7381611b4f565b92915050565b5f8060408385031215611b8f57611b8e611829565b5b5f611b9c85828601611a5a565b9250506020611bad85828601611b65565b9150509250929050565b5f80fd5b5f80fd5b7f4e487b71000000000000000000000000000000000000000000000000000000005f52604160045260245ffd5b611bf582611926565b810181811067ffffffffffffffff82111715611c1457611c13611bbf565b5b80604052505050565b5f611c26611820565b9050611c328282611bec565b919050565b5f67ffffffffffffffff821115611c5157611c50611bbf565b5b611c5a82611926565b9050602081019050919050565b828183375f83830152505050565b5f611c87611c8284611c37565b611c1d565b905082815260208101848484011115611ca357611ca2611bbb565b5b611cae848285611c67565b509392505050565b5f82601f830112611cca57611cc9611bb7565b5b8135611cda848260208601611c75565b91505092915050565b5f805f8060808587031215611cfb57611cfa611829565b5b5f611d0887828801611a5a565b9450506020611d1987828801611a5a565b9350506040611d2a878288016119ad565b925050606085013567ffffffffffffffff811115611d4b57611d4a61182d565b5b611d5787828801611cb6565b91505092959194509250565b5f67ffffffffffffffff821115611d7d57611d7c611bbf565b5b611d8682611926565b9050602081019050919050565b5f611da5611da084611d63565b611c1d565b905082815260208101848484011115611dc157611dc0611bbb565b5b611dcc848285611c67565b509392505050565b5f82601f830112611de857611de7611bb7565b5b8135611df8848260208601611d93565b91505092915050565b5f60208284031215611e1657611e15611829565b5b5f82013567ffffffffffffffff811115611e3357611e3261182d565b5b611e3f84828501611dd4565b91505092915050565b5f8060408385031215611e5e57611e5d611829565b5b5f611e6b85828601611a5a565b9250506020611e7c85828601611a5a565b9150509250929050565b7f4e487b71000000000000000000000000000000000000000000000000000000005f52602260045260245ffd5b5f6002820490506001821680611eca57607f821691505b602082108103611edd57611edc611e86565b5b50919050565b5f606082019050611ef65f830186611a1c565b611f036020830185611b27565b611f106040830184611a1c565b949350505050565b5f81905092915050565b5f611f2c826118e4565b611f368185611f18565b9350611f468185602086016118fe565b80840191505092915050565b5f611f5d8285611f22565b9150611f698284611f22565b91508190509392505050565b7f6f6e6c792061646d696e2063616e206d696e74000000000000000000000000005f82015250565b5f611fa96013836118ee565b9150611fb482611f75565b602082019050919050565b5f6020820190508181035f830152611fd681611f9d565b9050919050565b7f4e487b71000000000000000000000000000000000000000000000000000000005f52601160045260245ffd5b5f6120148261198e565b91507fffffffffffffffffffffffffffffffffffffffffffffffffffffffffffffffff820361204657612045611fdd565b5b600182019050919050565b5f81519050919050565b5f82825260208201905092915050565b5f61207582612051565b61207f818561205b565b935061208f8185602086016118fe565b61209881611926565b840191505092915050565b5f6080820190506120b65f830187611a1c565b6120c36020830186611a1c565b6120d06040830185611b27565b81810360608301526120e2818461206b565b905095945050505050565b5f815190506120fb8161185c565b92915050565b5f6020828403121561211657612115611829565b5b5f612123848285016120ed565b91505092915050565b5f819050815f5260205f209050919050565b5f6020601f8301049050919050565b5f82821b905092915050565b5f600883026121887fffffffffffffffffffffffffffffffffffffffffffffffffffffffffffffffff8261214d565b612192868361214d565b95508019841693508086168417925050509392505050565b5f819050919050565b5f6121cd6121c86121c38461198e565b6121aa565b61198e565b9050919050565b5f819050919050565b6121e6836121b3565b6121fa6121f2826121d4565b848454612159565b825550505050565b5f90565b61220e612202565b6122198184846121dd565b505050565b5b8181101561223c576122315f82612206565b60018101905061221f565b5050565b601f821115612281576122528161212c565b61225b8461213e565b8101602085101561226a578190505b61227e6122768561213e565b83018261221e565b50505b505050565b5f82821c905092915050565b5f6122a15f1984600802612286565b1980831691505092915050565b5f6122b98383612292565b9150826002028217905092915050565b6122d2826118e4565b67ffffffffffffffff8111156122eb576122ea611bbf565b5b6122f58254611eb3565b612300828285612240565b5f60209050601f831160018114612331575f841561231f578287015190505b61232985826122ae565b865550612390565b601f19841661233f8661212c565b5f5b8281101561236657848901518255600182019150602085019450602081019050612341565b86831015612383578489015161237f601f891682612292565b8355505b6001600288020188555050505b505050505050565b5f6040820190506123ab5f830185611a1c565b6123b86020830184611b27565b9392505050565b7f4e487b71000000000000000000000000000000000000000000000000000000005f52601260045260245ffdfea26469706673582212201d35754c6d2a5ee244819941c035ddb845ddf86b1cd6632ae60873157a6b54f964736f6c63430008150033",
  "immutableReferences": {},
  "source": "// contracts/GameItem.sol\n// SPDX-License-Identifier: MIT\npragma solidity ^0.8.21;\n\nimport {ERC721URIStorage} from \"@openzeppelin/contracts/token/ERC721/extensions/ERC721URIStorage.sol\";\nimport {ERC721} from \"@openzeppelin/contracts/token/ERC721/ERC721.sol\";\n\ncontract SafeNumbers is ERC721URIStorage {\n    uint256 private _nextTokenId;\n    address public admin;\n\n    constructor() ERC721(\"SafeNumbers\", \"SFN\") {\n        admin = msg.sender;\n    }\n\n    function mint(string memory tokenURI) public returns (uint256) {\n        require(msg.sender == admin, \"only admin can mint\");\n        uint256 tokenId = _nextTokenId++;\n        _mint(msg.sender, tokenId);\n        _setTokenURI(tokenId, tokenURI);\n        return tokenId;\n    }\n}\n",
  "sourcePath": "/Users/Munachi/Documents/GitHub/nft_marketplace/contracts/EmotionalShapes.sol",
  "compiler": {
    "name": "solc",
    "version": "0.8.21+commit.d9974bed.Emscripten.clang"
  },
  "schemaVersion": "3.4.16",
  "updatedAt": "2023-10-15T08:25:23.896Z",
  "devdoc": {
    "errors": {
      "ERC721IncorrectOwner(address,uint256,address)": [
        {
          "details": "Indicates an error related to the ownership over a particular token. Used in transfers.",
          "params": {
            "owner": "Address of the current owner of a token.",
            "sender": "Address whose tokens are being transferred.",
            "tokenId": "Identifier number of a token."
          }
        }
      ],
      "ERC721InsufficientApproval(address,uint256)": [
        {
          "details": "Indicates a failure with the `operator`s approval. Used in transfers.",
          "params": {
            "operator": "Address that may be allowed to operate on tokens without being their owner.",
            "tokenId": "Identifier number of a token."
          }
        }
      ],
      "ERC721InvalidApprover(address)": [
        {
          "details": "Indicates a failure with the `approver` of a token to be approved. Used in approvals.",
          "params": {
            "approver": "Address initiating an approval operation."
          }
        }
      ],
      "ERC721InvalidOperator(address)": [
        {
          "details": "Indicates a failure with the `operator` to be approved. Used in approvals.",
          "params": {
            "operator": "Address that may be allowed to operate on tokens without being their owner."
          }
        }
      ],
      "ERC721InvalidOwner(address)": [
        {
          "details": "Indicates that an address can't be an owner. For example, `address(0)` is a forbidden owner in EIP-20. Used in balance queries.",
          "params": {
            "owner": "Address of the current owner of a token."
          }
        }
      ],
      "ERC721InvalidReceiver(address)": [
        {
          "details": "Indicates a failure with the token `receiver`. Used in transfers.",
          "params": {
            "receiver": "Address to which tokens are being transferred."
          }
        }
      ],
      "ERC721InvalidSender(address)": [
        {
          "details": "Indicates a failure with the token `sender`. Used in transfers.",
          "params": {
            "sender": "Address whose tokens are being transferred."
          }
        }
      ],
      "ERC721NonexistentToken(uint256)": [
        {
          "details": "Indicates a `tokenId` whose `owner` is the zero address.",
          "params": {
            "tokenId": "Identifier number of a token."
          }
        }
      ]
    },
    "events": {
      "Approval(address,address,uint256)": {
        "details": "Emitted when `owner` enables `approved` to manage the `tokenId` token."
      },
      "ApprovalForAll(address,address,bool)": {
        "details": "Emitted when `owner` enables or disables (`approved`) `operator` to manage all of its assets."
      },
      "BatchMetadataUpdate(uint256,uint256)": {
        "details": "This event emits when the metadata of a range of tokens is changed. So that the third-party platforms such as NFT market could timely update the images and related attributes of the NFTs."
      },
      "MetadataUpdate(uint256)": {
        "details": "This event emits when the metadata of a token is changed. So that the third-party platforms such as NFT market could timely update the images and related attributes of the NFT."
      },
      "Transfer(address,address,uint256)": {
        "details": "Emitted when `tokenId` token is transferred from `from` to `to`."
      }
    },
    "kind": "dev",
    "methods": {
      "approve(address,uint256)": {
        "details": "See {IERC721-approve}."
      },
      "balanceOf(address)": {
        "details": "See {IERC721-balanceOf}."
      },
      "getApproved(uint256)": {
        "details": "See {IERC721-getApproved}."
      },
      "isApprovedForAll(address,address)": {
        "details": "See {IERC721-isApprovedForAll}."
      },
      "name()": {
        "details": "See {IERC721Metadata-name}."
      },
      "ownerOf(uint256)": {
        "details": "See {IERC721-ownerOf}."
      },
      "safeTransferFrom(address,address,uint256)": {
        "details": "See {IERC721-safeTransferFrom}."
      },
      "safeTransferFrom(address,address,uint256,bytes)": {
        "details": "See {IERC721-safeTransferFrom}."
      },
      "setApprovalForAll(address,bool)": {
        "details": "See {IERC721-setApprovalForAll}."
      },
      "supportsInterface(bytes4)": {
        "details": "See {IERC165-supportsInterface}"
      },
      "symbol()": {
        "details": "See {IERC721Metadata-symbol}."
      },
      "tokenURI(uint256)": {
        "details": "See {IERC721Metadata-tokenURI}."
      },
      "transferFrom(address,address,uint256)": {
        "details": "See {IERC721-transferFrom}."
      }
    },
    "version": 1
  },
  "userdoc": {
    "kind": "user",
    "methods": {},
    "version": 1
  }
}